:10000000EBC100000AC2000008C2000006C20000E6
:1000100004C2000002C200000C946D1DFEC100006D
:10002000FCC10000FAC100000C943E1DF6C10000A6
:10003000F4C10000F2C10000F0C10000EEC10000F8
:10004000ECC100000C94BD1D0C94941DE6C1000091
:10005000E4C100000C941320E0C10000DEC10000E8
:10006000DCC100000C94F11C0C94C41CD6C100002F
:10007000D4C10000D2C10000D0C10000CEC1000038
:10008000CCC10000CAC10000C8C10000C6C1000048
:10009000C4C10000C2C10000C0C10000BEC1000058
:1000A000BCC10000BAC10000B8C10000B6C1000068
:1000B000B4C10000B2C10000B0C10000AEC1000078
:1000C000ACC10000AAC10000A8C10000A6C1000088
:1000D000A4C10000A2C10000A0C100009EC1000098
:1000E0009CC10000AE03B2033104BD04F00404055A
:1000F000070514054F065C07550658065B065E06A5
:10010000AB30AB30B330B330AB30AB30AB30AB3007
:10011000E1303033F5333C33F533D33348335433A4
:1001200060336C33F5330334F5337D33F533943377
:10013000A033B933F533F533F5330C3318332433A7
:10014000084AD73B3BCE016E84BCBFFDC12F3D6C3E
:1001500074319ABD56833DDA3D00C77F11BED9E4A4
:10016000BB4C3E916BAAAABE000000803F05A84C84
:10017000CDB2D44EB93836A9020C50B99186880850
:100180003CA6AAAA2ABE000000803F005B544C4F48
:100190003A005B4739323A005B4733303A005B47FD
:1001A00032383A005B47005B47433A00244E313D0A
:1001B00000244E303D005D0D0A005B53493A005B60
:1001C0004F3A005B534F3A0053657474696E67731E
:1001D0002064656661756C74730053657474696E30
:1001E0006773206C6F616465640053657474696E35
:1001F0006773207361766564005B484C503A242431
:1002000020242320244720244920244E2024783DE4
:1002100076616C20244E783D6C696E6520244A3DE1
:100220006C696E65202443202458202448207E20B9
:1002300021203F206374726C2D785D0D0A004361AC
:100240007574696F6E3A20556E6C6F636B656400F0
:10025000526573746F72696E672064656661756C50
:1002600074730044697361626C656400456E616219
:100270006C65640050676D20456E64006F6B007C98
:10028000413A007C4F763A007C57434F3A007C500D
:100290006E3A007C46533A007C4D506F733A0049E9
:1002A000646C650052756E004A6F6700486F6D653B
:1002B00000486F6C643A00416C61726D00446F6F6E
:1002C000723A00436865636B00416C61726D00D1E6
:1002D0000200000000553769375237000000002740
:1002E0002448277C2724582720746F20756E6C6F54
:1002F000636B000D0A005D0D0A005B4D53473A0029
:100300005B5052423A006572726F723A0056303555
:100310000060EA4600000000000100CDCC4C3E6FBA
:1003200012033B00000000FA0000000048420000F9
:1003300020410000004000007A440000000000005E
:10034000484300004843000048430000FA430000CF
:10035000FA430000FA430000204100002041000061
:10036000204100004843000048430000484300008B
:100370000000000000000100000000004772626CF5
:1003800020312E342E61205B27242720666F7220B7
:1003900075434E432068656C705D0D0A00414C4109
:1003A000524D3A00526573657420746F20636F6E0E
:1003B00074696E756500436865636B204C696D698F
:1003C000747300436865636B20456D657267656E85
:1003D00063792073746F700011241FBECFEFD1E2D8
:1003E000DEBFCDBF00E00CBF12E0A0E0B2E0ECE861
:1003F000F4E800E00BBF02C007900D92AA30B107ED
:10040000D9F727E0AAE0B2E001C01D92A53CB207EF
:10041000E1F70E949C3B0C944442F2CDABEBB0E080
:10042000E4E1F2E00C94F53D0E94DA39811153C504
:100430000E944339811104C00E947B390C940D1530
:100440000E944339843211F00C94EE1480914A07D3
:1004500080FF03C00E941D2653C10E947B390E9469
:100460007B39F82E28E48217D1F12817A0F034E266
:10047000831739F1381738F0882309F43BC183E238
:10048000F81631F181C093E4891709F43DC0A7E45F
:100490008A1799F179C0B0E58B1709F464C0B817D1
:1004A00040F0EAE48E17B9F1FEE48F1709F43BC07F
:1004B0006BC022E5821709F450C038E58317B1F00C
:1004C00063C00E947B39811131C190E8F92E37C198
:1004D0000E947B3981112AC181E8F82E30C10E9427
:1004E0007B39811123C1B7E8FB2E29C10E947B39DA
:1004F00081111CC1A6E8FA2E22C10E947B3981110C
:1005000015C1F2E8FF2E1BC10E947B3981110EC17B
:10051000E4E8FE2E14C10E947B398D3309F47BC4BC
:1005200090E1F92EC9C40E947B39882309F4E5C003
:1005300090ED980F923008F0F9C0803329F087E6EB
:10054000C82EDD24D39403C0B5EECB2ED12C0E944F
:100550007B398D3309F0EAC01AC00E947B3983359C
:1005600009F0E4C007C00E947B398111DFC06DE84B
:10057000F62EE5C00E947B39843509F0D7C00E9471
:100580007B398D3309F0D2C0A5EECA2ED12C5E0185
:100590008FE2A80EB11C8BE0D5011D928A95E9F778
:1005A000FE0131964F018CE2DF011D928A95E9F739
:1005B0003E01BBE56B0E711C86E0F30111928A953A
:1005C000E9F7F2E5FF1639F023E5F216B9F03EE45B
:1005D000F31256C01CC00E947B39F82E0E947B3952
:1005E0008111A4C084E2F8127DC40E948E374FE6C8
:1005F0006BED76E080E090E00E949F370E947B39AF
:10060000F82E0E947B39882309F47FC48FC0A30190
:10061000B401C5010E945531F82E81118AC0A30191
:10062000B401C5010E942330F82E811182C00E94BE
:1006300073390E9443398D33D1F70E947B395601BB
:1006400081E8A80EB11CF12C0E947B39E82E6F2D99
:100650000E949537F82E86010F5F1F4F6E2DC60141
:100660000E949C1C0A151B0539F485016F2DC801D9
:100670000E949C1C0C940D156801E110E5CFF6CF8B
:1006800080ED8F0D8A3008F051C0AB961CAE1DAEC8
:100690001EAE1FAEAB970E947339CE0189599F4F92
:1006A0000E942226882309F441C086FD3FC0AB96F4
:1006B000CCACDDACEEACFFACAB9720E030E04FE76C
:1006C00053E4C701B6010E94224118167CF120E0D4
:1006D00030E0A901C701B6010E94243F87FD26C072
:1006E000C701B6010E94933F162F0E947B398D33BC
:1006F000E9F409C028E8F22E22C073E8F72E1FC0E3
:1007000058E0F52ED9C3AB961CAE1DAE1EAE1FAE83
:10071000AB97CE0189599F4F0E942226882309F466
:1007200011C40E947B39882309F40FC443E0F42EDE
:10073000C3C3F7FEBDC389E8F81609F482C38F2D41
:1007400090E0FC01E058F109EE30F10508F0B4C387
:100750008827EE58FF4F8F4F0C94E33D0E942D3AAF
:100760000C940D1536E3C32ED12CE12CF12CBE01D7
:100770006F5F7F4F8AEC8C0D0E94793484EA91E0A0
:100780000E943439C701B6010E9439388AE30E94B9
:100790001B38CE0101960E941C398DE50E941B3842
:1007A0000E94F8399FEFC91AD90AE90AF90AACE39D
:1007B000CA16D104E104F104D1F68EE991E00E9459
:1007C0003439BE016F5F7F4F8CE10E947934CE01D6
:1007D00001960E941C398DE50E941B380E94F83951
:1007E00088E991E00E943439BE016F5F7F4F8EE14E
:1007F0000E947934CE0101960E941C398DE50E9439
:100800001B380E94F83982E991E00E943439BE0118
:100810006F5F7F4F8CE50E947934CE0101960E9474
:100820001C398DE50E941B380E94F8398CE891E054
:100830000E943439BE016F5F7F4F8EEF0E94793482
:1008400069817A818B819C810E94AB388DE50E9401
:100850001B380E94F8398091FA020E94623B0C9486
:100860000D159E0129593F4FAE01415D5F4FBE01FD
:10087000655A7F4FCE0101960E94AF3487EA91E01E
:100880000E9434398E010F5F1F4F6E01B8E0CB0E0E
:10089000D11CF801F1908F0187E40E941B386F2D65
:1008A00070E080E090E00E94393880E20E941B38BE
:1008B000C016D10671F7188587E41E33E1F40E9453
:1008C0001B386DE370E080E090E00E9439388EE2E2
:1008D0000E941B3861E070E080E090E00E943938AF
:1008E00080E20E941B388E01075F1F4F6E01FCE003
:1008F000CF0ED11C07C00E941B38612F70E080E032
:1009000090E0ECCFD801FD908D018DE40E941B3862
:100910006F2D70E080E090E00E94393880E20E9404
:100920001B380C151D0571F784E50E941B386C857A
:1009300070E080E090E00E94393880E20E941B382D
:1009400086E40E941B386D966EAD7FAD6D9780E09A
:1009500090E00E94BF3F0E94113980E20E941B3844
:1009600083E50E941B386FA578A980E090E00E9483
:1009700039388DE50E941B382FC0198281EB91E038
:100980000E94343985EE90E08C010F5F1F4F41E0EB
:10099000BE016F5F7F4F0E94D1378981181624F402
:1009A0000E941B38C801F0CF0E94F8398CEA91E010
:1009B0000E94343987E691E08C010F5F1F4F41E0C0
:1009C000BE016F5F7F4F0E94D1378981181624F4D2
:1009D0000E941B38C801F0CF0E94F8390C940D1505
:1009E00090913B0681E0892780933B06882319F08C
:1009F0008CE692E005C08EEF0E948B2783E692E0A2
:100A00000E94EA390C940D1580E592E0F9CF81E05F
:100A10000E94332780914A0786FF03C02DE0F22E03
:100A20004BC28EE392E0ECCF8091F406882311F460
:100A30000C94131581E00E94332780914A0786FDAC
:100A4000EDCF80E10E942D2781E00E9433270E9494
:100A50008E1980914A07847E11F08BE08EC087E06A
:100A600080930A028091380790913907A0913A0744
:100A7000B0913B07BC01CD01905820E030E040EC44
:100A80005FE30E945D416B017C018091F70682FF6C
:100A900004C0F7FAF094F7F8F0940E943835BE01DC
:100AA000615D7F4F88E496E00E947520A701960162
:100AB0006FA978AD89AD9AAD0E945E3E6FAB78AFFD
:100AC00089AF9AAF20E030E0A901C701B6010E94CA
:100AD000224187FD03C0C701B60103C0C701B601AB
:100AE00090580E94933F6E8F7F8F88A399A38E01A9
:100AF0000F5F1F4F8CE0F80111928A95E9F7C7014B
:100B0000B6010E94933F69877A878B879C87809183
:100B1000F8069091F906A091FA06B091FB068AA317
:100B20009BA3ACA3BDA318A61FA21AA619A61BA619
:100B300081E00E94332780E10E942D27B801CE0179
:100B40008F960E9464350E944E1981118AC30E94BB
:100B500075190E94BF190E94DF256091F5067091FA
:100B6000F60680E090E00E94B0260E943619877059
:100B700039F480E20E942D2789E00E948B2771C3FF
:100B800020E030E040EA50E46091000770910107F6
:100B900080910207909103070E945D416B017C01E7
:100BA0000E943835BE01615D7F4F88E496E00E9467
:100BB00075208091F70682FF04C0F7FAF094F7F8E9
:100BC000F094A70196016FA978AD89AD9AAD0E9406
:100BD0005E3E6FAB78AF89AF9AAF8091FC06909183
:100BE000FD06A091FE06B091FF068AA39BA3ACA3CD
:100BF000BDA320E030E0A901C701B6010E94224157
:100C000087FD03C0C701B60103C0C701B6019058F4
:100C10000E94933F6E8F7F8F88A399A3C701B6016F
:100C20000E94933F69877A878B879C878091E5062E
:100C300097E0F92E8F258093E50681E00E94332707
:100C4000B801CE018F960E94643580E10E942D2765
:100C50000E944E19811105C36091F5067091F60648
:100C600080E090E00E94B0268091E506F826F092A0
:100C7000E5060E9475190E947E3B0E94BF190E94E2
:100C8000DF256091F5067091F60680E090E00E9405
:100C9000B0260E943619877009F4E8C26ACF89EF3E
:100CA00091E00E9434390C940D158AEE91E0A8CEA3
:100CB0008AED91E0A5CE88EC91E0A2CEF12CBFE0C8
:100CC000FB1609F45BC0BF15F0F0E8E0FE1609F46E
:100CD00043C0EF1570F0F1E0FF16C9F1FF16A8F15F
:100CE00022E0F21292C080910B0183FB002700F9F1
:100CF0004CC03AE0F316A1F1F31680F18EE0F81241
:100D000084C08BB133C094E6F91609F453C09F1523
:100D100068F0A4E1FA16D9F1B3E3FB1609F43EC07A
:100D2000E0E1FE1272C0809108012DC0F6E6FF16C8
:100D300009F44BC0FF1608F442C02DE6F21265C05C
:100D400089B182FB002700F944C081B31CC081B384
:100D500086FB002700F919C081B304C081B306C027
:100D600080910B0181FB002700F90FC0082E000CB9
:100D7000990B092F001F0027001F07C081B382FBBA
:100D8000002700F902C0082F017010E026C0009172
:100D9000AC001091AD0017FD38C01FC085B1082E02
:100DA000000C990B092F001F0027001F10E08FEB8C
:100DB00091E015C08CB185FB002700F90AC0809135
:100DC000030181FB002700F904C089B183FB0027E0
:100DD00000F910E08AEB91E002C083EC91E00E9400
:100DE00034396F2D70E080E090E00E9439388AE35A
:100DF0000E941B38B801012E000C880B990B0E9431
:100E0000393886EB91E00E943439F39432E9F312D9
:100E100056CF0C940D1580914A0790914A079695EC
:100E20009695969521E0922790FBCC24C0F8D12C82
:100E300090E08C219D21892B09F062CC88E00E94F2
:100E40002D2780914A07877F11F00C9417156E01AA
:100E50008FE2C80ED11C8CE2D6011D928A95E9F76B
:100E60008E0106571F4F86E0F80111928A95E9F727
:100E70008BE0EBEFF2E0DE01A158BF4F01900D9245
:100E80008A95E1F7C058DF4F8881C058D040807FF5
:100E9000C058DF4F8883C058D040A801B601CE01AA
:100EA00081589F4F0E945531F82E882309F463C260
:100EB000FF2011F40C940D1586E093E00E94343964
:100EC0006F2D70E080E090E00E9439380E94F83980
:100ED00082E080934B070E949727C554DF4FE2E1E1
:100EE0000C94113E9AE2F9120CC00E948E374FE624
:100EF0006BED76E080E090E00E949F370E94853B9A
:100F00007DCBA3E2FA1212CCF9CFB2E5FB1205C0F9
:100F10000E948E377CE8F72E12CCE3E5FE120AC061
:100F20004FE66BED76E080E090E00E949F37FAE8B4
:100F3000FF2E05CCFCE4FF12F9CB0E94313BEBE81D
:100F4000FE2EFDCB42E0F42EB7CFAB96CCACDDACA1
:100F5000EEACFFACAB97C701B6010E94933F062FE2
:100F6000C701B6010E94933F2B013C01BB24B394FF
:100F700020E030E0A901C701B6010E94243F8111A1
:100F800001C0B12C20E030E0A901C701B6010E94E8
:100F9000243F87FD63C1143109F4BAC0A8F51530A8
:100FA00009F496C0B0F4123009F48AC040F4112359
:100FB00009F469C0113011F40C940D1506C11330F9
:100FC00009F482C0143009F000C10093E4060C94C7
:100FD0000D151A3009F484C058F4163009F47CC099
:100FE000173009F0F2C00F700093E8060C940D154D
:100FF0001C3009F483C008F477C01D3009F0E5C047
:10100000B092F1060C940D151B3109F4AAC0E8F456
:10101000173109F492C050F4153109F48AC0163121
:1010200009F0D3C0B092F4060C940D15193109F4EF
:1010300088C008F090C0C092FC06D092FD06E092F5
:10104000FE06F092FF060C940D15103209F49DC0B7
:1010500080F41E3109F48FC01F3109F0B6C0C09270
:101060000807D0920907E0920A07F0920B070C9448
:101070000D151A3609F495C01B3609F49CC01035BD
:1010800009F0A3C086C0A701960160E074E284E77E
:1010900099E40E942B3F6B017C0120E030E64AEE90
:1010A00056E40E94224118160CF4D2C0C092DE060B
:1010B000D092DF06E092E006F092E1060C940D1566
:1010C0000093E2060C940D150093E3060C940D15A5
:1010D0000093E5060C940D15B092E6060C940D15E0
:1010E0000093E7060C940D15C092E906D092EA062B
:1010F000E092EB06F092EC060C940D15C092ED0612
:10110000D092EE06E092EF06F092F0060C940D15E8
:101110008091F406811109C020E030E0A901C701E7
:10112000B6010E94243F811196C0B092F2060C9441
:101130000D15B092F3060C940D150093F7060C9460
:101140000D15C092F806D092F906E092FA06F092D8
:10115000FB060C940D155092F6064092F5060C9481
:101160000D15C0920007D0920107E0920207F0929D
:1011700003070C940D15C0920407D0920507E09266
:101180000607F09207070C940D15009349070C947D
:101190000D1581E0011101C080E0809344070C949B
:1011A0000D15C0923C07D0923D07E0923E07F092A9
:1011B0003F070C940D15C0924007D0924107E09272
:1011C0004207F09243070C940D15ECE9E10FE33070
:1011D00060F494E0E99FF0011124E552F94FC1AAAF
:1011E000D2AAE3AAF4AA0C940D15E2E9E10FE330C8
:1011F00038F4A4E0EA9FF0011124E85EF84F22C021
:10120000E8E8E10FE33038F4B4E0EB9FF00111249B
:10121000EC5DF84F17C0EEE7E10FE33038F424E05F
:10122000E29FF0011124E05DF84F0CC08FEA810FBE
:10123000803108F07BCA105534E0139FF00111246F
:10124000EB5BF84FC082D182E282F3820C940D15E1
:101250006CE0F62E31CE5AE0F52E2ECE34E0F32E91
:101260002BCE80E10E94DF260C940D1581E00E94B8
:1012700033278EE2D8011D928A95E9F7BE01655A9F
:101280007F4F88E496E00E947520A7966CAD7DADF7
:101290008EAD9FADA797E091F706C0900007D09064
:1012A0000107E0900207F0900307E2FF04C0A701E6
:1012B0009601505802C0A70196010E945E3EA79673
:1012C0006CAF7DAF8EAF9FAFA7978091F8069091DE
:1012D000F906A091FA06B091FB068AA39BA3ACA3E2
:1012E000BDA318A61FA21AA619A6B801CE01855A39
:1012F0009F4F0E9464350E944E198091F406882306
:1013000079F14091F70650E023E02150BA01022E16
:1013100002C0759567950A94E2F7F4E02F9FC0012B
:101320001124F801E80FF91F60FF0DC0DC01A05D7A
:10133000B84F8D919D910D90BC91A02D86A797A738
:10134000A0ABB1AB04C016A617A610AA11AA211112
:10135000DCCF6DEA75E0CE018F960E94922307C024
:101360008CE0EDEAF5E0DF011D928A95E9F70E9435
:1013700038350C940D15A801B601CE0181589F4F48
:101380000E942330F82E811193CD9E012F5F3F4F95
:1013900079018EE2D9011D928A95E9F7CE57DF4F88
:1013A0008881C258D040982F977081F0F801208131
:1013B000318132FD0BC09350923010F40C94CF1455
:1013C000887FCE57DF4F8883C258D040CF57DF4F3A
:1013D0008881C158D04083FD02C081E08BA7D8012D
:1013E00012968D919C91139787FF0EC02F964CAD4E
:1013F0005DAD6EAD7FAD2F97CD57DF4F48835983DD
:101400006A837B83C358D04096FF14C069964EAD63
:101410005FAD6997C857DF4F59834883C858D0409C
:1014200021E060910403709105036417750709F4C6
:1014300020E02DA797FF1CC06A962FAD6A97C95769
:10144000DF4F8881C758D04090E0422F022E000C19
:10145000550B8417950761F0CE57DF4F8881C2582E
:10146000D04020FB83F9CE57DF4F8883C258D0404D
:10147000F8018081918193FF14C00E944E196A96F1
:101480008FAD6A970E94761CCE57DF4F8881C25875
:10149000D04083FB882780F9C957DF4F8883C7581E
:1014A000D040CE57DF4F8881C258D040829583709C
:1014B000813069F0A8F08230A9F4C857DF4F8881E5
:1014C0009981C858D04091958195910906C0C85717
:1014D000DF4F88819981C858D04098A78FA302C058
:1014E00018A61FA2D80112968D919C91139796FD74
:1014F00004C08D919C9194FF0AC081E08DA78091DA
:101500004907811104C088EE93E09AA789A7F801E2
:101510008081918195FF02C081E08DA7CE57DF4F7A
:101520008881C258D04082958695869583708CA715
:10153000CF57DF4F8881C158D040881F8827881F28
:101540008EA7C058DF4F8881C058D0408F7081303F
:10155000B1F5C9A4DAA420E030E04AE754E4639688
:101560006CAD7DAD8EAD9FAD63970E945D414B012B
:101570005C0120E03FEF4FE757E40E94243F18163C
:101580003CF4812C99249A948FE7A82E87E4B82EF6
:10159000C501B4010E94C0410E94933F6C157D05B6
:1015A00008F4B6017AA769A7C058DF4F8881C058F0
:1015B000D040807FC058DF4F8883C058D04089A575
:1015C0009AA5892B69F080913B06811109C0C7015A
:1015D0000E94423569A57AA580E090E00E94B0267D
:1015E000C058DF4F8881C058D040829583708330C7
:1015F000A1F090E0FC01ED5FFD4F2081CA55DF4F67
:101600002883C65AD040FC01E050FE4F3081C955B6
:10161000DF4F3883C75AD0400AC0C955DF4F188200
:10162000C75AD040CA55DF4F1882C65AD040CF574C
:10163000DF4FC880C158D040C4FC87C0B3E0DB2E68
:10164000DA94570184E0D89EA00CB11C112423E346
:1016500033E34BEC51E4D5019E966D917D918D91D4
:101660009C91D1970E945D41F50166A777A780AB59
:1016700091ABD110E5CFD8011296AD90BC901397E5
:10168000C50188279770892B91F123E333E34BEC55
:1016900051E46BAD7CAD8DAD9EAD0E945D416BAFF5
:1016A0007CAF8DAF9EAF23E333E34BEC51E4239645
:1016B0006CAD7DAD8EAD9FAD23970E945D412396AD
:1016C0006CAF7DAF8EAF9FAF239723E333E34BEC3B
:1016D00051E427966CAD7DAD8EAD9FAD27970E94EE
:1016E0005D4127966CAF7DAF8EAF9FAF2797A7FE6A
:1016F00018C0C3FE16C023E333E34BEC51E4CD57CF
:10170000DF4F688179818A819B81C358D0400E94D4
:101710005D41CD57DF4F688379838A839B83C358AC
:10172000D040B5FE12C023E333E34BEC51E467969F
:101730006CAD7DAD8EAD9FAD67970E945D416796A4
:101740006CAF7DAF8EAF9FAF6797C5FC1BC0F80134
:10175000808186FF17C08FA998ADA9ADBAAD8093DF
:10176000D1029093D202A093D302B093D40282818B
:1017700093818B7F938382831FAA18AE19AE1AAE12
:101780001092D002D8018D919C9190FF17C0C15842
:10179000DF4F8881CF57D0408295869587708093A0
:1017A000D502BDE08B9FC00111244CE066ED72E0D4
:1017B00080599F4F0E94D1371092D002C058DF4FFE
:1017C0008881C058D04082958695869583708130F7
:1017D00029F0833031F48BA5806802C08BA580642A
:1017E0008BA78CE0ECE3F6E0DE01AD58BF4F019033
:1017F0000D928A95E1F7CF57DF4F8881C158D040CD
:101800008470582EC058DF4F8881C058D0408F70E8
:1018100091E0863009F090E081E0511080E0B92E2F
:10182000B82AF801C280D380C0FE19C0BB2029F0BD
:101830006FA578A989A99AA90CC0E7962CAD3DADF2
:101840004EAD5FADE7976FA578A989A99AA90E94C7
:101850005E3EE7966CAF7DAF8EAF9FAFE797C1FE60
:1018600019C0BB2029F06BA97CA98DA99EA90CC029
:10187000EB962CAD3DAD4EAD5FADEB976BA97CA962
:101880008DA99EA90E945E3EEB966CAF7DAF8EAF98
:101890009FAFEB973601F4E06F227724C2FE19C0A8
:1018A000BB2029F06FA978AD89AD9AAD0CC0EF9639
:1018B0002CAD3DAD4EAD5FADEF976FA978AD89AD65
:1018C0009AAD0E945E3EEF966CAF7DAF8EAF9FAF3C
:1018D000EF978BA580FD1DC0CD57DF4F8880998085
:1018E000AA80BB80C358D0402FEF3FEF4FE75FE7A0
:1018F000C501B4010E94224187FD06C088248A9454
:10190000982CAFE7AA2EBA2C8AA29BA2ACA2BDA2A9
:101910000CC0CD57DF4F88819981AA81BB81C35804
:10192000D0408AA39BA3ACA3BDA3C058DF4F88813E
:10193000C058D0408F708B3081F118F4823081F024
:1019400047C08C3089F18D3009F042C08CE0E7E16E
:10195000F2E0A2EEB2E001900D928A95E1F72BC081
:1019600063966CAD7DAD8EAD9FAD63970E94933F46
:10197000611103C06091D5026F5F6C3111F40C945A
:10198000F7146E3119F4F7E0BF2E83C0BB24BA946C
:10199000B60E2FEFB2127AC01BC08CE0E7E1F2E086
:1019A000DF011D928A95E9F78CE0E2EEF2E0DF01BB
:1019B0001D928A95E9F71092D002C058DF4F8881B6
:1019C000C058D040807FC058DF4F8883C058D04077
:1019D000C058DF4F8881C058D0408F70863009F4DE
:1019E00074C0511072C073E0572E88248394912CD8
:1019F0005A94E52DF0E0C401052C02C0880F991F10
:101A00000A94E2F78C219D21892B21F1EE0FFF1F13
:101A1000EE0FFF1F63E7A62EB12CAC0EBD1EAE0E5F
:101A2000BF1EEF52FD4F2189328943895489658158
:101A30007681878190850E945E3EF501208131810B
:101A4000428153810E945E3ED5016D937D938D93BB
:101A50009C9313975110CCCF61147104B1F1209174
:101A6000D1023091D2024091D3025091D402EF962C
:101A70006CAD7DAD8EAD9FADEF970E945E3EEF9653
:101A80006CAF7DAF8EAF9FAFEF971FC0B7E0BB15B8
:101A9000E0F0EDE0BE9EC00111244CE0BE016D58A7
:101AA0007F4F80599F4F0E949F378091D5028B11A5
:101AB0000AC08CE0FE01ED58FF4FA6EDB2E00190A8
:101AC0000D928A95E1F71092D002909049079920E3
:101AD00049F0C058DF4F8881C058D0408F7011F056
:101AE00018A61FA2C058DF4F9881C058D040892F38
:101AF0008F70863009F47EC020F48350823038F035
:101B00007FC08A3009F07CC043E0B42E38C08FEF2C
:101B10009FEFAFE7BFE78AA39BA3ACA3BDA3D80108
:101B200012968D919C9113978F739927892B79F435
:101B3000C058DF4F8881C058D0408F70833081F407
:101B40004CE0BE016D587F4F8EEB90E00FC0B701A7
:101B5000CE018D589F4F0E946435882349F32BC7CF
:101B60004CE0BE016D587F4F8FEB90E00E94D13763
:101B7000B701CE018D589F4F0E9464351CC7BA949F
:101B8000B4E0BB9EC0011124FC01EF52FD4F6F0178
:101B9000E3E7F0E0EC0FFD1FE80FF91FDC01A45CA8
:101BA000B94F2D913D914D915C9160817181828100
:101BB00093810E945D3ED60151962D913D914D91AC
:101BC0005C9154970E945D3EDC01CB01B058F60158
:101BD000818B928BA38BB48BB110D1CF8CE0E2EED2
:101BE000F2E0A7E1B2E001900D928A95E1F7109240
:101BF000D00206C0907FC058DF4F9883C058D040B5
:101C0000C058DF4F8881C058D0408F7009F08FC610
:101C1000D80112960D90BC91A02DCC56DF4FB98300
:101C2000A883C459D040CD018F739927892B09F41B
:101C30007EC6C158DF4F8881CF57D040182F1F7103
:101C4000143038F4123018F5112339F0113089F0BE
:101C50006EC6183008F409C66AC68FEF9FEFAFE76B
:101C6000BFE78AA39BA3ACA3BDA3992011F018A63C
:101C70001FA220E030E0A9016AA17BA18CA19DA157
:101C80000E94243F8111E8C539E2F32E15C920E0F6
:101C900030E0A9016AA17BA18CA19DA10E94243FF3
:101CA000882391F3CA55DF4FB881C65AD040CB2E56
:101CB000D12CF601EE0FFF1FEE0FFF1FCC55DF4FAB
:101CC000F983E883C45AD040E3E7F0E0EC0FFD1F4E
:101CD000CC55DF4F28813981C45AD040E20FF31F21
:101CE000D901A45CB94F2D913D914D915C916081DA
:101CF0007181828193810E945D3E2B013C01C95517
:101D0000DF4F3881C75AD040032F10E01801220C52
:101D1000331C220C331CE3E7F0E0EC0FFD1FE20D57
:101D2000F31DD101A45CB94F2D913D914D915C9172
:101D300060817181828193810E945D3EC057DF4F37
:101D4000688379838A839B83C059D040F601339698
:101D5000EE0FFF1FEE0FFF1FEE0DFF1D86A497A4D1
:101D6000A0A8B1A80D5F1F4F000F111F000F111F7A
:101D7000F701E00FF11F86A597A5A0A9B1A9C85644
:101D8000DF4F88839983AA83BB83C859D040CC5640
:101D9000DF4FA881B981C459D040B5FFEFC020E022
:101DA00030E0A901C301B2010E94243F811110C09B
:101DB00020E030E0A901C057DF4F688179818A8136
:101DC0009B81C059D0400E94243F882309F4EFC56D
:101DD000A3019201C301B2010E945D414B015C016C
:101DE000C057DF4F288139814A815B81C059D0407B
:101DF000CA01B9010E945D41C856DF4F68837983EB
:101E00008A839B83C859D04067968CAD9DADAEAD9B
:101E1000BFAD6797CC56DF4F88839983AA83BB8376
:101E2000C459D0409C01AD01BC01CD010E945D416F
:101E300020E030E040E850E40E945D41A5019401BB
:101E40000E945D3EC856DF4F288139814A815B81FF
:101E5000C859D0400E945D3E6B017C0120E030E01B
:101E6000A9010E94243F87FD9EC5C856DF4F2881E7
:101E700039814A815B81C859D040C501B4010E94B3
:101E80005E3E9B01AC01C701B6010E942B3F0E9440
:101E9000E4416B017C01F7FAF094F7F8F094C15833
:101EA000DF4F2881CF57D0402F71233011F46B01C1
:101EB0007C0120E030E0A901CC56DF4F68817981B8
:101EC0008A819B81C459D0400E94243F87FF15C05E
:101ED000F7FAF094F7F8F094CC56DF4F88819981A7
:101EE000AA81BB81C459D040B058CC56DF4F8883FB
:101EF0009983AA83BB83C459D040A7019601C057D8
:101F0000DF4F688179818A819B81C059D0400E94CE
:101F10005D419B01AC01C301B2010E945D3E4B01DA
:101F20005C01A7019601C301B2010E945D41C05747
:101F3000DF4F288139814A815B81C059D0400E949E
:101F40005E3E6B017C0120E030E040E05FE3C501D4
:101F5000B4010E945D414B015C0120E030E040E0B3
:101F60005FE3C701B6010E945D41C856DF4F688339
:101F700079838A839B83C859D0406CC0A5019401A2
:101F8000C501B4010E945D416B017C01C856DF4F61
:101F9000288139814A815B81C859D040CA01B90181
:101FA0000E945D419B01AC01C701B6010E945E3EEB
:101FB0000E94E441CC56DF4F688379838A839B83F8
:101FC000C459D040A5019401C301B2010E945D3EF5
:101FD0006B017C01C856DF4F288139814A815B81C2
:101FE000C859D040C057DF4F688179818A819B8171
:101FF000C059D0400E945D3E2B013C01A7019601D3
:10200000C701B6010E945D416B017C01A3019201F1
:10201000C301B2010E945D419B01AC01C701B60141
:102020000E945E3E0E94E4419B01AC01CC56DF4F12
:10203000688179818A819B81C459D0400E945D3E2C
:102040009F772FE632E143E05BE30E9422411816BE
:102050000CF4ADC4C158DF4F1881CF57D0401F7169
:10206000BE0169597F4F88E496E00E947520E7E63B
:10207000F0E0EC0FFD1FCC55DF4FA881B981C45AA9
:10208000D040EA0FFB1F2081318142815381C5017D
:10209000B4010E945E3EC655DF4F688379838A8310
:1020A0009B83CA5AD040E7E6F0E0EC0FFD1FE20D3B
:1020B000F31D2081318142815381C856DF4F6881F1
:1020C00079818A819B81C859D0400E945E3EC25569
:1020D000DF4F688379838A839B83CE5AD040D501B2
:1020E000C401B058C456DF4F88839983AA83BB8349
:1020F000CC59D040C856DF4F88819981AA81BB81D5
:10210000C859D040B058C056DF4F88839983AA83FE
:10211000BB83C05AD040E3E7F0E0EC0FFD1FCA5587
:10212000DF4FA881C65AD04094E0A99FE00DF11D71
:102130001124C655DF4F288139814A815B81CA5AF3
:10214000D04060817181828193810E945D3E6B01EC
:102150007C01E3E7F0E0EC0FFD1FC955DF4F28815C
:10216000C75AD040B4E02B9FE00DF11D1124C25599
:10217000DF4F288139814A815B81CE5AD04060810E
:102180007181828193810E945D3E4B015C01A701B8
:102190009601C456DF4F688179818A819B81CC5931
:1021A000D0400E945D412B013C01A5019401C05625
:1021B000DF4F688179818A819B81C05AD0400E941B
:1021C0005D419B01AC01C301B2010E945E3E2B0147
:1021D0003C01A5019401C456DF4F688179818A8151
:1021E0009B81CC59D0400E945D414B015C01A7010D
:1021F0009601C056DF4F688179818A819B81C05AE0
:10220000D0400E945D419B01AC01C501B4010E9418
:102210005D3EA30192010E94D13EC057DF4F68830B
:1022200079838A839B83C059D04020E030E0A901A4
:10223000123099F40E94224187FD31C02BED3FE01E
:1022400049EC50E4C057DF4F688179818A819B81D6
:10225000C059D0400E945D3E1AC0C057DF4F688110
:1022600079818A819B81C059D0400E94243F1816F1
:10227000B4F02BED3FE049EC50E4C057DF4F6881EC
:1022800079818A819B81C059D0400E945E3EC057AF
:10229000DF4F688379838A839B83C059D040C057BE
:1022A000DF4F288139814A815B81C059D040CC56AB
:1022B000DF4F688179818A819B81C459D0400E9417
:1022C0005D414B015C01C090ED06D090EE06E090C0
:1022D000EF06F090F006CC56DF4F288139814A8115
:1022E0005B81C459D040CA01B9010E945E3EA7017A
:1022F00096010E945D3EA70196010E945D410E94E9
:10230000E4416B017C0120E030E040E05FE3C50187
:10231000B4010E945D419F77A70196010E942B3F67
:102320000E94FC3F0E94933FC855DF4F798368832A
:10233000C85AD040DB01AB2BC1F080E090E00E9496
:10234000BF3F9B01AC01C057DF4F688179818A8113
:102350009B81C059D0400E942B3FC057DF4F6883FC
:1023600079838A839B83C059D040A3E0FA2EC85555
:10237000DF4FE881F981C85AD0402F01612C712CC0
:10238000FA940F2D10E0C301B2010E94BF3F4B0130
:102390005C01000F111F000F111FFBE5CF2ED12C88
:1023A000CC0EDD1EC00ED11EE3E7F0E0EC0FFD1FEA
:1023B000E00FF11FA7E6B0E0AC0FBD1FA00FB11FEB
:1023C0002D913D914D915C916081718182819381CC
:1023D0000E945D3EA50194010E942B3FD6016D93A2
:1023E0007D938D939C931397F110CACFEBE5F0E0AA
:1023F000EC0FFD1FCC55DF4F28813981C45AD040E6
:10240000E20FF31F1082118212821382EBE5F0E0DB
:10241000EC0FFD1FE20DF31D108211821282138258
:102420008BA580FF0CC0A50194016AA17BA18CA1A2
:102430009DA10E945D416AA37BA38CA39DA3C0576D
:10244000DF4F288139814A815B81C059D040CA0160
:10245000B9010E945D416B017C012BEA3AEA4AE234
:102460005EE30E945D419B01AC0160E070E080E8AA
:102470009FE30E945D3E4B015C019B01AC01C05794
:10248000DF4F688179818A819B81C059D0400E9449
:102490005D41CE54DF4F688379838A839B83C25B1F
:1024A000D04020E030E040E85FE3C501B4010E9485
:1024B0005E3E9B01AC01C701B6010E945D4120E078
:1024C00030E040E85EE30E945D419B01AC0160E0CA
:1024D00070E080E89FE30E945D3ECA54DF4F68834E
:1024E00079838A839B83C65BD040C456DF4F488084
:1024F000CC59D040C356DF4F5880CD59D040C2563A
:10250000DF4F6880CE59D040C156DF4F7880CF5919
:10251000D04001E010E0CC56DF4F1882C459D040C3
:1025200087E690E08C0F9D1FCC55DF4FA881B981C5
:10253000C45AD0408A0F9B1FCC55DF4F99838883A4
:10254000C45AD040E7E6F0E0EC0FFD1FE20DF31DAA
:10255000C654DF4FF983E883CA5BD040C855DF4FCC
:1025600028813981C85AD0400217130708F074C176
:10257000CC56DF4FF881C459D040F03108F064C028
:10258000C056DF4F288139814A815B81C05AD040D3
:10259000CA54DF4F688179818A819B81C65BD040B4
:1025A0000E945D416B017C019201A301CE54DF4F7B
:1025B000688179818A819B81C25BD0400E945D41A4
:1025C000A70196010E945E3E7B016C019201A3016E
:1025D000CA54DF4F688179818A819B81C65BD04074
:1025E0000E945D414B015C01C056DF4F288139815B
:1025F0004A815B81C05AD040CE54DF4F68817981D7
:102600008A819B81C25BD0400E945D419B01AC01ED
:10261000C501B4010E945D3E2B013C01CC56DF4F49
:102620002881C459D0402F5FCC56DF4F2883C4592E
:10263000D040C701D601C056DF4F88839983AA8353
:10264000BB83C05AD04094C0B80180E090E00E94A3
:10265000BF3FC057DF4F288139814A815B81C05914
:10266000D0400E945D412B013C010E94283F4B015C
:102670005C019B01AC010E945D419B01AC0160E0EB
:1026800070E080E89FE30E945D3E0E94E4416B01A0
:102690007C0120E030E0A901C301B2010E94224187
:1026A00087FD0BC02BED3FE049E450E4C301B201CC
:1026B0000E94243F18167CF40AC02BED3FE049E449
:1026C00050ECC301B2010E94224187FD04C0F7FA19
:1026D000F094F7F8F094A5019401C456DF4F688197
:1026E00079818A819B81CC59D0400E945D412B0128
:1026F0003C01A7019601C856DF4F688179818A8124
:102700009B81C859D0400E945D41A30192010E9463
:102710005E3E2B013C01A7019601C456DF4F688144
:1027200079818A819B81CC59D0400E945D416B01A7
:102730007C01A5019401C856DF4F688179818A81A7
:102740009B81C859D0400E945D419B01AC01C701EB
:10275000B6010E945D3EC056DF4F688379838A834D
:102760009B83C05AD040CC56DF4F1882C459D0400A
:102770009201A301C655DF4F688179818A819B81CF
:10278000CA5AD0400E945E3ECC55DF4FA881B98125
:10279000C45AD0406D937D938D939C931397C056EC
:1027A000DF4F288139814A815B81C05AD040C255B0
:1027B000DF4F688179818A819B81CE5AD0400E9407
:1027C0005E3EC654DF4FE881F981CA5BD04060832A
:1027D00071838283938373E0F72EFA94CA55DF4F97
:1027E000F881C65AD040FF1541F1C955DF4F288105
:1027F000C75AD0402F1509F134E0F39EC0011124CF
:1028000067E6C62ED12CCC0EDD1EC80ED91EEBE518
:10281000F0E0EC0FFD1FE80FF91F208131814281AC
:102820005381D6016D917D918D919C910E945E3E68
:10283000F6016083718382839383F110CECFBE0152
:102840006F5F7F4FCE0189599F4F0E946435811180
:102850006CC00F5F1F4F82CEBE016F5F7F4FCE01F6
:102860008D589F4F0E94643560C080FF02C002E017
:1028700001C000E0D0904A07809169008061809398
:102880006900B701CE018D589F4F0E9464350E94A8
:102890009727882309F4AEC080914A07382F3170FA
:1028A000F32E80FDF4CF809169008F7E80936900C4
:1028B0001CD50E947E3B63D50E94DF256EEE72E040
:1028C0008BE092E00E9475200E9438358D2D847037
:1028D00080958B6F0E94DF266091F5067091F60659
:1028E00080E090E00E94B02689B184709091E60665
:1028F00021E0911103C0811103C001C0811120E0CA
:10290000812F90E031E006970CF430E0032B332365
:1029100011F081E0282721117CC0027009F06CC001
:1029200085E00E948B27F12C67C0811144C08CE0A8
:10293000FE01ED58FF4FACE3B6E001900D928A9591
:10294000E1F7CE57DF4F8881C258D040877085307D
:1029500028F4833030F4813031F019C0863019F01A
:1029600016C011E001C010E080913B06811106C045
:1029700095D4811103C084E00E942D27112339F0E2
:10298000B4D40E947E3B84E792E00E94EA398DA590
:102990008823A9F0CE0101960E9442350CC05CE26A
:1029A000F52E0C945C0742E2F42E0C945C0731E2A5
:1029B000F32E0C945C07F82E81110C94580780912B
:1029C0004A0783FD2AC08BE0FE01E158FF4FABEFC1
:1029D000B2E001900D928A95E1F71FC080914A07FD
:1029E000887F11F40C9427070E941D2620C026E042
:1029F000B22E4FC8FF24FA941092FA02F11005C0CB
:102A00008091FA020E94623BDACFFF24FA940C9480
:102A10005C0781E08093FA02F3CF8CE792E00E949A
:102A200034390C94660795E0F92E0C945C0789E024
:102A3000F82E0C945C07ACE1B0E0E1E2F5E10C9417
:102A4000F53D7E876D87BE016F5F7F4F0E949223A9
:102A5000ED85FE85118E128E138E148E158E168EB8
:102A6000178E10A2C12CD12C760143E04150F4E026
:102A70004F9F90011124A1E0B0E0AC0FBD1FA20F49
:102A8000B31FF901E85BF94F8D919D910D90BC91B9
:102A9000A02D80809180A280B38088199909AA090D
:102AA000BB09B7FF07C0B095A095909581959F4F42
:102AB000AF4FBF4FED85FE85E20FF31F80839183FB
:102AC000A283B383C80ED91EEA1EFB1EED85FE85C8
:102AD000058D168D278D30A1081719072A073B078A
:102AE00020F4858F968FA78FB0A34111BFCFED85BE
:102AF000FE85C18ED28EE38EF48E8CE0FE0131967F
:102B0000A8E4B6E001900D928A95E1F780913B062A
:102B100081117BC3F0910603FB8B2F2E312C8AE2AF
:102B2000829DD001839DB00D11249D01265F3C4FF5
:102B3000F90111928A95E9F7ED85FE85808DF901FD
:102B40008083ED85FE8585A1F901818BED85FE856C
:102B500095A5BD016D5C7C4FFB01808190FB83F9E5
:102B60008083ED85FE8546A157A1F90157A346A3B1
:102B70005093080340930703ED85FE8593A593705A
:102B80008C7F892BFB01808390930903A55FBC4F49
:102B90008CE0ED85FE8501900D928A95E1F7ED853B
:102BA000FE85C58CD68CE78CF0A0F901C586D6864B
:102BB000E786F08A8FEF9FEFAFE7BFE782A393A38B
:102BC000A4A3B5A31F86188A198A1A8A73E0772EE0
:102BD0007A94072D10E0F8013396EE0FFF1FEE0FE9
:102BE000FF1F2D853E85E20FF31F80809180A2801C
:102BF000B380000F111F000F111F0C531D4FF80160
:102C00002081318142815381C501B4010E945D411F
:102C10009B01AC016F85788989899A890E945E3E03
:102C20006F87788B898B9A8BF80180829182A28240
:102C3000B3827110CDCFFFEFFD8B2FEF2F8B3FE7CE
:102C4000388F8FE7898F93E09C8B8AE2829DF00119
:102C5000839DF00D1124FB8FEA8FE45DFC4F2F0163
:102C6000FC89F150FC8B24E0F29F30011124EA8DA5
:102C7000FB8DE60DF71DE65FFC4F6181728183815C
:102C80009481611571058105910509F44BC00E947D
:102C9000BF3F9B01AC0183010552194FF80161A9A7
:102CA00072A983A994A90E942B3F4B015C01F801F2
:102CB000FD9620813181428153810E945D416E8B5E
:102CC0007C8F8C012D893F89488D598D0E9422412E
:102CD00087FF06C0FE89FD8B2C8D2F8B088F198FE7
:102CE000F301EC5DF84F2081318142815381C501B0
:102CF000B4010E945D413B014C01F201A080B18012
:102D0000028113819501A8010E94224187FF02C020
:102D100053018401C501D801F20180839183A2830C
:102D2000B38307C0F301EC53FD4F1082118212826E
:102D30001382FC89F11194CF29E838E848E85CE374
:102D4000ED85FE8561A172A183A194A10E945D41E0
:102D50005B018C01C701B6010E94BF3F2B013C0102
:102D600029E838E848E85CE36D897F89888D998D8A
:102D70000E945D41A30192010E945D416B017C01B3
:102D80002AE2229DC001239D900D11249C01265F03
:102D90003C4F4901A3019201F40162A173A184A1F6
:102DA00095A10E945D41F40162A373A384A395A33E
:102DB0009601A701B501C8010E942241181614F41A
:102DC000560187019501A801B501C8010E945D4126
:102DD0004B015C018AE2829D8001839D100D1124CC
:102DE000065F1C4FC401D501F801828F938FA48F19
:102DF000B58F9601A701B601C7010E945D41F80198
:102E0000668F778F80A391A3F0918105FC8BFF23C0
:102E100009F4EAC12B89211102C01FE001C01B89FE
:102E200020E030E0A9016F85788989899A890E941C
:102E3000243F882309F4D8C1ED85FE8502A5802FA3
:102E4000827409F0D1C120E030E0A9016F85788952
:102E500089899A890E94224118166CF520E030E099
:102E600040E85FE36F85788989899A890E945E3E90
:102E70009B01AC0160E070E080E89FE30E942B3F83
:102E80006B017C012F85388949895A89CA01B901AA
:102E90000E945D419B01AC0160E070E080E89FE32F
:102EA0000E945D3E0E94E4419B01AC01C701B60156
:102EB0000E945D4104C060E070E080E89FE307FF8E
:102EC00009C02091E9063091EA064091EB06509145
:102ED000EC0603C020E030E0A9010E945D3E6B01DA
:102EE0007C0120E030E0A9010E94243F1816ACF4D8
:102EF00020E030E040E85FE3C701B6010E942241D4
:102F000087FF41C020E030E040E85FE3C701B60141
:102F10000E94243F87FF37C003C0C12CD12C76010B
:102F2000A701960160E070E080E89FE30E945D3EAB
:102F30009B01AC010E945D4111502AE2129FF001F9
:102F40001124E65FFC4F228D338D448D558D0E94F8
:102F50005D417B018C019B01AC01B401C5010E9464
:102F6000243F181614F4470158018AE2829DF001AB
:102F7000839DF00D1124E65FFC4FC401D501868BC3
:102F8000978BA08FB18F3C89323068F48AE2829DA2
:102F9000F001839DF00D1124E65FFC4F128A138A25
:102FA000148A158A21C10B890F5F0F3009F400E0E4
:102FB000809180058D8B1B894AE2642E812E912C95
:102FC000689CC001699C900D1124FC01ED5CFC4FD4
:102FD000208122FF07C001E0010F0F3009F073C00C
:102FE00000E071C02D892117B1F3FC01E65FFC4FB1
:102FF0007F0185859685A785B089BC01CD01660FC7
:10300000771F881F991F0E94BF3FF70122A133A19C
:1030100044A155A10E945D411B012C01F701A68826
:10302000B788C08CD18C9501A60162897389848987
:1030300095890E94243F882371F29501A601B10170
:10304000C2010E94224187FD02C015012601FB89B1
:10305000F11751F0609EF0011124E65FFC4F2689C4
:103060003789408D518D03C020E030E0A901B101C6
:10307000C2010E945E3E562EE72EF82E092F262F03
:10308000372F482F592FB501C6010E94243F18162B
:1030900024F4A52CBE2CCF2CD02E689CF001699C6A
:1030A000F00D1124E65FFC4FC501D601828B938B96
:1030B000A48BB58B111102C08FE001C0812F012FAD
:1030C0001FEF180F7BCF309182053F879B899117A7
:1030D00009F487C0EAE2E19FC00111249C01265F48
:1030E0003C4F3901F9012288338844885588C02E25
:1030F000D12CFAE2FC9DC001FD9D900D11249C0194
:10310000265F3C4F7901F90182889388A488B588AD
:10311000A5019401C201B1010E94243F87FF54C060
:10312000F30185859685A785B089BC01CD01660F21
:10313000771F881F991F0E94BF3FF30122A133A16F
:1031400044A155A10E945D419B01AC01C201B101A6
:103150000E945E3E362E472E582E692E262F372F80
:10316000482F592FC501B4010E942241181664F559
:10317000F7019688A788B08CF18C292D3A2D4B2D1C
:103180005F2D632D742D852D962D0E94224187FF82
:1031900003C0932C5201F62C2AE22C9DF0012D9DA8
:1031A000F00D1124DF01A65FBC4F492D5A2D6B2D68
:1031B0007F2D52964D935D936D937C935597ED5C67
:1031C000FC4F8081846080833D89311302C081E09F
:1031D0008F8781E0800F8F3009F480E0102F082F57
:1031E00075CFEF85E09382058B898F5F8F3019F063
:1031F0008093060302C0109206037C887394709239
:103200008105ED85FE8511A610A680E06C96E2E1B1
:103210000C94113E80FF02C05F9A01C05F9881FF4D
:1032200002C08A9A01C08A9882FF04C08091080176
:10323000816003C0809108018E7F8093080108950A
:1032400080FF02C0889A01C0889881FF02C08E9AD0
:1032500001C08E9882FF04C080910B01886003C07A
:1032600080910B01877F80930B0108959CB1809121
:10327000030195FB992790F98270892B4B9902C025
:1032800090E001C094E0892B9091E506892708958C
:1032900060E070E0CB010E941E251AC38091810579
:1032A000882369F00E9497278111F8CF90914A07EF
:1032B000907381E0903309F480E0819508959091B6
:1032C0000A06809109069813EDCF90914A07892F3D
:1032D000817090FDE7CF0895DC019CE0EDEAF5E018
:1032E00001900D929A95E1F7089580914A0780FF29
:1032F00003C080E20E942D278091E206A1DF809129
:103300004907882319F080E090E0E2D21092810012
:1033100080916F00897F80936F000895A7DF90915F
:10332000F3069923A9F0882399F090914A079171A7
:10333000913141F4982F977059F0873019F08093AC
:10334000AC0508951092AC05D0DF80E20C942D27D7
:1033500008951092090610920A0610920C06109217
:103360000B0610922502109224021092230280E58F
:10337000E9EBF5E0DF011D928A95E9F708951092D7
:10338000C3021092C2021092C1028BE9E6E2F2E09F
:10339000DF011D928A95E9F7DCCF4F925F926F9221
:1033A0007F928F929F92AF92BF92FF920F931F9343
:1033B000CF93DF93CDB7DEB7A9970FB6F894DEBFF2
:1033C0000FBECDBF80914B07882309F4B5C1809112
:1033D0004C0782FFB1C180914C078B7F80934C07D3
:1033E000CE010D9679DFBE01675E7F4FCE010D964F
:1033F0007CD680914A0780FF13C090910A06809185
:103400000906981769F0E0910A0680E1E89FF0014B
:103410001124E754FA4F438454846584768403C0AE
:10342000412C512C3201E0911606F091170630978D
:1034300011F0199501C080E0682F70E080E090E005
:103440000E94BF3F4B015C0121E830E840E85BE3AC
:103450006091040770910507809106079091070716
:103460000E945D41A50194010E945D410E94C041FE
:103470000E94933F4B015C01F9DE082F89B18470F3
:103480009091E606911106C091E0811101C090E093
:10349000F92E04C0FF24F3948111F12C30914A07D6
:1034A00089E090E020E8122F132321F4019711F016
:1034B0002695F9CF8CE30E941B3880914A07807EC5
:1034C00039F490914F0781E0911103C080E001C071
:1034D00081E080FF03C089EC92E03DC080913B0613
:1034E000882319F083EC92E036C0183061F138F48B
:1034F000113078F1133050F11430C9F02AC0103275
:1035000099F0103429F0103121F58CEA92E023C0B3
:103510008DEB92E00E94343980914A0780FF02C00F
:1035200083E30EC080E30CC087EB92E014C081EB14
:1035300092E00E94343980914A0780FFF3CF81E303
:103540000E941B380AC088EA92E005C084EA92E033
:1035500002C08FE992E00E94343988E992E00E942B
:103560003439CE0149960E941C3983E992E00E94C9
:103570003439C301B2010E9411398CE20E941B3818
:10358000B40180E090E00E943938802F8F7311F4ED
:10359000FF2039F18EE892E00E943439FF2019F0C3
:1035A00080E50E941B3800FF03C088E50E941B389D
:1035B00001FF03C089E50E941B3802FF03C08AE5B2
:1035C0000E941B3803FF03C081E40E941B3804FFE4
:1035D00003C082E40E941B3805FF03C083E40E94FD
:1035E0001B388091D00281113EC013E0115084E05D
:1035F000189FF0011124AA24A394B12CAC0EBD1E77
:10360000AE0EBF1EEF52FD4F25813681478150859A
:1036100061897289838994890E945E3EF501608385
:103620007183828393831111E1CF2091D102309174
:10363000D2024091D3025091D40269857A858B855C
:103640009C850E945E3E69877A878B879C878EE186
:103650008093D00288E892E00E943439CE0101962E
:103660000E941C3964C081508093D00280918305F0
:10367000811136C0F0908405009185051091860572
:103680008EE18093830583E892E00E9434396F2DA8
:1036900070E080E090E00E9439388CE20E941B3894
:1036A000602F70E080E090E00E9439388CE20E9448
:1036B0001B38612F70E080E090E00E9439389E0155
:1036C000275D3F4FAE014B5D5F4FBE01695D7F4F90
:1036D000CE0101960E94AF348985853029F40CC053
:1036E00081508093830523C0833011F088E001C0AE
:1036F00084E099A5892B89A719A51123C1F08FE72B
:1037000092E00E94343912FF03C083E50E941B3807
:1037100013FF03C083E40E941B3811FF03C086E43B
:103720000E941B3810FF03C08DE40E941B388EE3FB
:103730000E941B380E94F839A9960FB6F894DEBF94
:103740000FBECDBFDF91CF911F910F91FF90BF9022
:10375000AF909F908F907F906F905F904F90089563
:1037600080914A0787FF0CC080914A0784FF02C0FE
:1037700086E00FC080914A0780FF40C083E009C007
:1037800080914A0786FF08C080914A0784FF04C0E1
:1037900087E00E948B2732C080914A0785FF11C0C5
:1037A00080914A0780FF0DC080914A0784FD05C0C3
:1037B0005DDD882311F081E0ECCF80914A078E7F98
:1037C0001BC080914A078474D9F080914A0780FD1C
:1037D00017C080914A0786FF04C087DD0E947E3BA8
:1037E00001C083DD80914A07887141F0C8DD0E94E5
:1037F000DF2580914A07837E80934A0780E0089501
:1038000081E008958F3389F028F4883151F08132B6
:1038100011F127C08438B9F08538C9F08E3709F521
:103820000AC080914C07816003C080914C0784607E
:1038300080934C07089580914A0781FD40C0809194
:103840004C078260F5CF80914A07846407C080915D
:103850004A0783FF34C080914A07846080934A07F7
:10386000089590E7980F983058F421E030E0A901CE
:1038700002C0440F551F9A95E2F740934D070895F3
:1038800090914E0727E6280F263050F421E030E0D3
:1038900047E6480F01C0220F4A95EAF7907C922B29
:1038A00020E6280F223048F4822F20E430E001C0C7
:1038B000220F8A95EAF79F73922B90934E070895F3
:1038C000E0911406F0911506309709F019950895C6
:1038D000E0911206F0911306309739F0692F661FB8
:1038E0006627661F97FD819519950895CF93C82F78
:1038F0000E947E3BE0911006F0911106309709F08E
:103900001995C13049F44EE050E061ED72E08EE06F
:1039100096E00E94BE3D07C08EE0EEE0F6E0DF01DB
:103920001D928A95E9F7E0910E06F0910F06309707
:1039300009F01995CF910895F894F999FECF07B63B
:1039400000FCFDCF92BD81BD81E08FBB80B5862795
:10395000962F982339F06F3F19F060BD84E006C0C0
:1039600084E104C0882321F060BD84E28FBBF99A12
:10397000F999FECF78940895F999FECF92BD81BD53
:1039800081E08FBB80B508951F920F920FB60F9202
:1039900011240BB60F922F933F934F935F936F9326
:1039A0007F938F939F93AF93BF93EF93FF93E1EC3C
:1039B000F0E080818F7D80830E94F737FF91EF9147
:1039C000BF91AF919F918F917F916F915F914F9137
:1039D0003F912F910F900BBE0F900FBE0F901F9035
:1039E00018951F920F920FB60F9211240BB60F92DB
:1039F0002F933F934F935F936F937F938F939F93F7
:103A0000AF93BF93EF93FF938091C6008E3710F56D
:103A1000813201F18F33F1F08831E1F090910D06A0
:103A200091118AE29091D706E92FF0E0EC5AF94F14
:103A3000808381E0890F823809F480E09091D60676
:103A4000981305C090910D069F5F90930D0680938B
:103A5000D70601C0D7DEFF91EF91BF91AF919F9143
:103A60008F917F916F915F914F913F912F910F9027
:103A70000BBE0F900FBE0F901F9018951F920F92C4
:103A80000FB60F9211240BB60F922F933F934F93C3
:103A90005F936F937F938F939F93AF93BF93EF93B6
:103AA000FF9390910301809121068927909321062D
:103AB00081FD34DCFF91EF91BF91AF919F918F9188
:103AC0007F916F915F914F913F912F910F900BBE1E
:103AD0000F900FBE0F901F9018951F920F920FB668
:103AE0000F9211240BB60F922F933F934F935F9336
:103AF0006F937F938F939F93AF93BF93EF93FF93B6
:103B00000DDCFF91EF91BF91AF919F918F917F91CC
:103B10006F915F914F913F912F910F900BBE0F903E
:103B20000FBE0F901F9018951F920F920FB60F9215
:103B300011240BB60F922F933F934F935F936F9384
:103B40007F938F939F93AF93BF93EF93FF93809156
:103B5000E20676DBFF91EF91BF91AF919F918F913C
:103B60007F916F915F914F913F912F910F900BBE7D
:103B70000F900FBE0F901F9018951F920F920FB6C7
:103B80000F9211240BB60F92CF92DF92EF92FF9219
:103B90000F931F932F933F934F935F936F937F9355
:103BA0008F939F93AF93BF93CF93DF93EF93FF9345
:103BB0008091200681111CC2E0910B06F0910C0649
:103BC000309709F43EC08785882309F180FF10C033
:103BD000268184819581AC015695479550938B0041
:103BE00040938A00909389008093880020938100FD
:103BF000E0910B06F0910C06878581FF03C081855B
:103C0000928566DEE0910B06F0910C061786E09136
:103C10000B06F0910C0682819381892B91F411821D
:103C2000108210920C0610920B0680910A06909159
:103C30000906891731F08F5F853009F480E08093A1
:103C40000A0680911F0680FF02C091E09FB981FFA4
:103C500002C090E49FB982FF03C088E0809309010D
:103C600010921F0680910B0690910C06892B09F08B
:103C7000CCC090910A0680910906981709F4C1C03A
:103C8000C0910A0600E1C09FE00111248E01075493
:103C90001A4F10930C0600930B0681E00E942D270B
:103CA000D801ED91FC911197309709F4AEC01896A8
:103CB0008C911897882309F489C08FEF8083189618
:103CC0008C911897ED91FC911816F4F54785508961
:103CD00061897289082E04C0440F551F661F771F23
:103CE0000A94D2F74787508B618B728B4389548932
:103CF00065897689082E04C0440F551F661F771FFB
:103D00000A94D2F7438B548B658B768B4789508D01
:103D1000618D728D082E04C0440F551F661F771FDA
:103D20000A94D2F7478B508F618F728F438D548DD9
:103D3000658D768D8A019B0104C0000F111F221F23
:103D4000331F8A95D2F73EC0819547855089618996
:103D50007289082E04C076956795579547950A9401
:103D6000D2F74787508B618B728B43895489658961
:103D70007689082E04C076956795579547950A94DD
:103D8000D2F7438B548B658B768B4789508D618D31
:103D9000728D082E04C076956795579547950A94BD
:103DA000D2F7478B508F618F728F438D548D658D05
:103DB000768D8A019B0104C0369527951795079546
:103DC0008A95D2F7038F148F258F368FC754DA4F19
:103DD000E881F981828180FF02C0899A01C08998B7
:103DE00081FF02C08F9A01C08F9882FF04C080912A
:103DF0000B01826003C080910B018D7F80930B01CA
:103E000004C081E0DCD771DAF3C081E08093200642
:103E10007894C0910B06D0910C062A813B81211524
:103E2000310509F4CDC0E881F981309709F4C4C0A7
:103E30004081442321F1818180FD3CC0C388D48826
:103E4000E588F68883819481A581B6818C0D9D1DBE
:103E5000AE1DBF1D838B948BA58BB68BC784D0887A
:103E6000E188F288C816D906EA06FB0618F58C190F
:103E70009D09AE09BF09838B948BA58BB68B80916E
:103E80001F06816080931F0652818091AD0590913D
:103E9000AE05A091AF05B091B00550FF9DC0019750
:103EA000A109B1098093AD059093AE05A093AF052C
:103EB000B093B005413021F1818181FD3CC0C788BC
:103EC000D08CE18CF28C87819085A185B2858C0D98
:103ED0009D1DAE1DBF1D878B908FA18FB28FC78494
:103EE000D088E188F288C816D906EA06FB0618F5DC
:103EF0008C199D09AE09BF09878B908FA18FB28F56
:103F000080911F06826080931F0652818091B105C7
:103F10009091B205A091B305B091B40551FF60C076
:103F20000197A109B1098093B1059093B205A093BF
:103F3000B305B093B405423021F1818182FD3CC0CC
:103F4000438D548D658D768D83859485A585B68545
:103F5000840F951FA61FB71F838F948FA58FB68FD1
:103F60004785508961897289481759076A077B0715
:103F700018F5841B950BA60BB70B838F948FA58F19
:103F8000B68F80911F06846080931F0642818091C6
:103F9000B5059091B605A091B705B091B80542FF5F
:103FA00023C00197A109B1098093B5059093B60587
:103FB000A093B705B093B805215031093B832A83FC
:103FC000F894109220068091AC05809590911F0680
:103FD000892380931F060CC00196A11DB11D62CFDD
:103FE0000196A11DB11D9FCF0196A11DB11DDCCF72
:103FF000FF91EF91DF91CF91BF91AF919F918F9101
:104000007F916F915F914F913F912F911F910F91F0
:10401000FF90EF90DF90CF900F900BBE0F900FBEF0
:104020000F901F9018951F920F920FB60F921124A8
:104030000BB60F92CF92DF92EF92FF922F933F93A6
:104040004F935F936F937F938F939F93AF93BF93A0
:10405000EF93FF93C090A805D090A905E090AA0522
:10406000F090AB058FEFC81AD80AE80AF80AC09298
:10407000A805D092A905E092AA05F092AB0580911F
:104080001E0681111BC081E080931E0678948C2D42
:104090008F71803159F4EAD890911D06909598233C
:1040A00080931D0691113AD910921C06D1FE02C0D0
:1040B0002F9A01C02F98F89410921E06FF91EF914D
:1040C000BF91AF919F918F917F916F915F914F9130
:1040D0003F912F91FF90EF90DF90CF900F900BBE0C
:1040E0000F900FBE0F901F901895A6E3B0E0EBE77E
:1040F000F0E20C94F53D1C017EA36DA3DC016D91F3
:104100007D918D919C910E94C13F20910C0730912F
:104110000D0740910E0750910F070E942B3F6FA390
:1041200078A789A79AA7ACE9B5E08D919D910D90EC
:10413000BC91A02D8D8F9E8FAF8FB8A39C01AD0138
:104140006091A0057091A1058091A2059091A305B1
:104150000E945D3E4B015C0100E915E0D8018D91A4
:104160009D910D90BC91A02D89A39AA3ABA3BCA354
:104170009C01AD01F80164817581868197810E945F
:104180005D3E69837A838B839C83D10114966D9104
:104190007D918D919C9117970E94C13F20911007AE
:1041A0003091110740911207509113070E942B3F45
:1041B0002FA138A549A55AA50E945D3E6B017C013F
:1041C000A5019401C501B4010E945D412B013C0190
:1041D00029813A814B815C81CA01B9010E945D410C
:1041E0009B01AC01C301B2010E945E3E2B013C0168
:1041F000A7019601C701B6010E945D419B01AC0178
:10420000C301B2010E945E3E6FA778AB89AB9AAB47
:104210000E94E4419B01AC0160E070E080E89FE314
:104220000E942B3F6D837E838F8398879B01AC0117
:10423000C501B4010E945D41698B7A8B8B8B9C8B8D
:104240002D813E814F81588569817A818B819C8146
:104250000E945D416D8B7E8B8F8B988F2D813E816F
:104260004F815885C701B6010E945D41698F7A8FE1
:104270008B8F9C8F2D8D3E8D4F8D58A16091A40505
:104280007091A5058091A6059091A7050E945D3EBD
:104290004B015C0129A13AA14BA15CA1F801608509
:1042A0007185828593850E945D3E6D877E878F87AD
:1042B000988BD10118966D917D918D919C911B9752
:1042C0000E94C13F209114073091150740911607B5
:1042D000509117070E942B3F2FA138A549A55AA539
:1042E0000E945D3E6B017C01A501940169897A8978
:1042F0008B899C890E945D412B013C012D853E8567
:104300004F8558896D897E898F89988D0E945D417E
:104310009B01AC01C301B2010E945E3E2B013C0136
:10432000A7019601698D7A8D8B8D9C8D0E945D41D0
:104330009B01AC01C301B2010E945E3E69837A8396
:104340008B839C839B01AC0169897A898B899C89C9
:104350000E945D419B01AC01C501B4010E945D3E1C
:1043600069877A878B879C8729813A814B815C8119
:104370006D897E898F89988D0E945D419B01AC017A
:104380006D857E858F8598890E945D3E2B013C015D
:1043900029813A814B815C81698D7A8D8B8D9C8DD1
:1043A0000E945D419B01AC01C701B6010E945D3EC8
:1043B0004B015C0129853A854B855C85CA01B901B1
:1043C0000E945D416B017C01A3019201C301B20116
:1043D0000E945D419B01AC01C701B6010E945E3E97
:1043E0006B017C01A5019401C501B4010E945D41EE
:1043F0009B01AC01C701B6010E945E3E6BAB7CAB7A
:104400008DAB9EAB0E94E4419B01AC0160E070E08B
:1044100080E89FE30E942B3F6B017C019B01AC0174
:1044200069857A858B859C850E945D4169877A873D
:104430008B879C87A7019601C301B2010E945D4151
:104440006D877E878F87988BA7019601C501B40180
:104450000E945D416BA77CA78DA79EA72D813E8101
:104460004F8158856FA578A989A99AA90E945D41B5
:1044700020E030E040E05FE30E945D412B013C0121
:1044800029813A814B815C81CA01B9010E945D4159
:104490002BA93CA94DA95EA90E945E3E20E030E018
:1044A00040E05FE30E945D414B015C01A30192018A
:1044B00069817A818B819C810E945D419B01AC0165
:1044C000C501B4010E945D3EA70196010E945D41B5
:1044D0004B015C01A3019201C301B2010E945D4145
:1044E0006B017C01A5019401C501B4010E945D41ED
:1044F0009B01AC01C701B6010E945E3E9B01AC016D
:1045000060918C0570918D0580918E0590918F053D
:104510000E945D3E0E94E44169837A838B839C8381
:10452000A301920169897A898B899C890E945D41E6
:104530002D8D3E8D4F8D58A10E945E3E6B017C01FA
:10454000A501940169857A858B859C850E945D41D2
:104550009B01AC01C701B6010E945E3E6B017C016C
:104560002BA53CA54DA55EA56D897E898F89988D6B
:104570000E945D416D837E838F8398872D853E8564
:104580004F855889698D7A8D8B8D9C8D0E945D41F8
:104590009B01AC016D817E818F8198850E945D3E7B
:1045A00029813A814B815C810E945D419B01AC0174
:1045B000C701B6010E945D3EEDA1FEA1608371833B
:1045C00082839383A30192016D897E898F89988D5F
:1045D0000E945D4129A13AA14BA15CA10E945E3ECF
:1045E0006B017C01A50194016D857E858F8598897D
:1045F0000E945D419B01AC01C701B6010E945E3E75
:104600006B017C0129853A854B855C85698D7A8DA6
:104610008B8D9C8D0E945D416D837E838F839887F7
:104620002BA53CA54DA55EA569897A898B899C89B6
:104630000E945D419B01AC016D817E818F819885D7
:104640000E945D3E29813A814B815C810E945D41DF
:104650009B01AC01C701B6010E945D3EADA1BEA1A8
:1046600014966D937D938D939C931797A30192015C
:10467000698D7A8D8B8D9C8D0E945D412FA138A50F
:1046800049A55AA50E945E3E6B017C01A5019401DB
:104690006BA57CA58DA59EA50E945D419B01AC01EB
:1046A000C701B6010E945E3E6B017C012D853E85EF
:1046B0004F85588969897A898B899C890E945D41D7
:1046C0004B015C0129853A854B855C856D897E8926
:1046D0008F89988D0E945D419B01AC01C501B40199
:1046E0000E945D3E29813A814B815C810E945D413F
:1046F0009B01AC01C701B6010E945D3E2091880577
:104700003091890540918A0550918B050E945E3E4B
:10471000EDA1FEA16087718782879387E696E2E12B
:104720000C94113EACE0B0E0E8E9F3E20C94F53D06
:104730009A8789871B01DC018D919D910D90BC9119
:10474000A02D89839A83AB83BC830CE915E09C017F
:10475000AD01F80160817181828193810E945D3E8B
:104760002B013C01A985BA8514968D919D910D90E0
:10477000BC91A02D8D839E83AF83B8879C01AD0132
:10478000E0E9F5E060817181828193810E945D3E64
:104790004B015C01209188053091890540918A0583
:1047A00050918B05A985BA8518966D917D918D9153
:1047B0009C911B970E945D3E6B017C0180918C0552
:1047C00090918D05A0918E05B0918F0589879A876C
:1047D000AB87BC87A3019201C301B2010E945D4176
:1047E0009B01AC0169857A858B859C850E945D3E25
:1047F0002B013C01A5019401C501B4010E945D415A
:104800009B01AC01C301B2010E945D3E0E94E441E4
:104810009B01AC01C701B6010E945E3E20910C07CE
:1048200030910D0740910E0750910F070E945D4196
:104830000E942D41D1016D937D938D939C9313978D
:1048400029813A814B815C81F8016481758186817F
:1048500097810E945D3E2B013C012D813E814F815D
:104860005885609194057091950580919605909179
:1048700097050E945D3E4B015C01A3019201C301BB
:10488000B2010E945D419B01AC0169857A858B85EF
:104890009C850E945D3E2B013C01A5019401C50150
:1048A000B4010E945D419B01AC01C301B2010E94B1
:1048B0005D3E0E94E4419B01AC01C701B6010E942C
:1048C0005E3E2091100730911107409112075091E0
:1048D00013070E945D410E942D41D10114966D93F2
:1048E0007D938D939C93179729813A814B815C81AD
:1048F000F80160857185828593850E945D3E4B013C
:104900005C012D813E814F815885609198057091A1
:10491000990580919A0590919B050E945D3E2B011F
:104920003C01A5019401C501B4010E945D419B01B8
:10493000AC0169857A858B859C850E945D3E4B0123
:104940005C01A3019201C301B2010E945D419B0180
:10495000AC01C501B4010E945D3E0E94E4419B018F
:10496000AC01C701B6010E945E3E20911407309150
:10497000150740911607509117070E945D410E944C
:104980002D41D10118966D937D938D939C931B9728
:104990002C96E2E10C94113E90918605890F8A30A5
:1049A00008F48AE0893C08F088EC981721F080939D
:1049B000860510928305089580918505843641F01F
:1049C00084E6809385051092830581E080938205BB
:1049D000089580918405843641F084E680938405AF
:1049E0001092830581E0809382050895909184055B
:1049F000890F8A3008F48AE0893C08F088EC98171F
:104A000039F0809384051092830581E080938205BC
:104A1000089580918105882359F0E09180058AE20C
:104A2000E89FF0011124ED5CFC4F8081837002C08F
:104A3000809109039091870589270895A0E0B0E04F
:104A4000E4E2F5E20C94F73D2B013C0180918105F5
:104A5000882359F0E09180058AE2E89FF001112453
:104A6000E65FFC4F66A177A104C0609107037091D7
:104A70000803072E000C880B990B0E94C13F4B01C5
:104A80005C0120E030E0A9010E94243F882309F462
:104A90008DC020E030E0A901C501B4010E9422418F
:104AA0007501640187FF04C0F7FAF094F7F8F094F9
:104AB00080914907882389F020E030E0A901C501F1
:104AC000B4010E94243F87FF08C0A3019201C701DF
:104AD000B6010E945D416B017C01E09180058AE294
:104AE000E89FF0011124ED5CFC4F808183FF17C02B
:104AF00060918605643699F070E080E090E00E9455
:104B0000BF3F2AE037ED43E25CE30E945D419B0139
:104B1000AC01C701B6010E945D416B017C010091AF
:104B2000040710910507D0910607C0910707980167
:104B30004D2F5C2FC701B6010E94243F18161CF4AC
:104B40006801ED2EFC2E40900807509009076090F8
:104B50000A0770900B079201A301C701B6010E94DA
:104B6000224187FF02C06201730198014D2F5C2F23
:104B7000C701B6010E942B3F20E030E04FE753E42D
:104B80000E945D410E9425420E94933FE62EF12C37
:104B900020E030E0A901C501B4010E94243F87FF55
:104BA00008C0882799278E199F0904C080E090E0EB
:104BB00001C0C701CDB7DEB7E0E10C94133E1092FF
:104BC000060310928005109281051092080310923E
:104BD0000703109209030895CF93DF93ABEFB2E080
:104BE000ECEFF2E080818F7C8083EDEFF2E080815A
:104BF0008077CEEFD2E098819870986098839091FA
:104C0000440718969C93189791E09C93886A80615A
:104C100080838CE0E2EEF2E0DF011D928A95E9F7F5
:104C20001092D1021092D2021092D3021092D402AA
:104C30001092D002DF91CF9108950E947B398111AB
:104C4000FCCF0895A0E0B0E0E8E2F6E20C94FF3D6E
:104C50008C010E94C339F8011082118212821382E2
:104C60008D3221F0D0E08B3231F401C0D0E80E94C7
:104C70007B390E94C339C0E0C12CD12C7601E0ED14
:104C8000E80FEA30A0F4A5E0B0E0A70196010E9489
:104C9000EB3D6B017C01CC0CDD1CEE1CFF1CCE0E31
:104CA000D11CE11CF11CC111CF5FD0620EC08E324D
:104CB00051F4CC2329F08D2F8072D5FD0BC04BC051
:104CC000D064C1E002C08032B1F70E947B390E94FB
:104CD000C339D5CFC701B6010E94BF3FF801608339
:104CE000718382839383C111C150C23088F02AE05E
:104CF00037ED43E25CE3F801608171818281938149
:104D00000E945D41F8016083718382839383C25066
:104D1000C1110DC0D7FF1EC0F80180819181A28111
:104D2000B381B05880839183A283B38313C02DECE9
:104D30003CEC4CEC5DE3F8016081718182819381F0
:104D40000E945D41F8016083718382839383C15027
:104D500061F6E0CF8D2FCDB7DEB7E8E00C941B3EB7
:104D60008F929F92AF92BF92CF92DF92EF92FF927B
:104D70006B017C018090A8059090A905A090AA05E0
:104D8000B090AB058091A8059091A905A091AA05C6
:104D9000B091AB0588199909AA09BB098C159D0525
:104DA000AE05BF0518F40E94CD19ECCFFF90EF902F
:104DB000DF90CF90BF90AF909F908F900895CF934A
:104DC000C82F80914F078111CF7D0E943619909195
:104DD000F306992331F0811103C08091F40681110B
:104DE000CF7DC2FF32C080914A0782FF2EC08091E2
:104DF0004A07826080934A0780914A078B7F80939D
:104E00004A0707DE0E94601C80914907811109C092
:104E100080918105882329F068EE73E080E090E0BE
:104E20009FDF0E94481980914907811109C0809134
:104E30008105882329F060EA7FE080E090E090DF40
:104E400080914A078D7F80934A0780914A07C095D9
:104E5000C823C0934A07CF910895EAE4F7E0908110
:104E6000892B80830895CF93C82F84EEA8DF0E94FA
:104E7000B01BCC2339F080914A078F7D80934A077D
:104E800010924F0780914A07807E61F080914A0717
:104E900087FF02C080E03DC08FED92E00E94EA39BA
:104EA00081E037C080914A078F7D80934A078CEF5D
:104EB00086DF8091E2060E9420198091E4060E941C
:104EC0000A198ADE80914B07823010F581E08093C9
:104ED000DA068EE30E941B3885EE90E09093D906A7
:104EE0008093D8060E940E028823A1F282E080936C
:104EF000DA068EE30E941B3887E691E09093D9068C
:104F00008093D8060E940E02882321F21092DA06BE
:104F100082E0CF910895CF93C82F80E89EDF0E9452
:104F200075190E947E3BC0934F07CF910895ABE562
:104F3000B0E0EDE9F7E20C94F53D0E94CD198091C7
:104F40004B07882311F40C941D3080914C07882363
:104F500059F010924C0780FF03C08EEFDCDFA1C038
:104F600081FF02C084E02BDF10914D071123A1F1D6
:104F700010924D07812F8F71843079F030F4813099
:104F800051F0823071F48AE00BC0883041F08031FA
:104F900041F48FEF05C01DDD04C086EF01C081E044
:104FA00025DD107E103431F0103851F01032A1F4AC
:104FB00003DD12C080918505823371F082E305C064
:104FC00080918505893141F089E1809385051092B2
:104FD000830581E08093820510914E07112309F427
:104FE00060C010924E07812F8F738430A9F030F487
:104FF000813061F0823049F58AE011C0803171F072
:10500000803279F0883009F581E009C084E6809328
:1050100086051092830519C086EF01C08FEFBCDCB6
:1050200014C080914A078574843079F4E0911606A3
:10503000F0911706309749F01995882331F080E0F8
:1050400090E00E94681C80E001C081E0912F907C7C
:10505000903461F490914A07907E41F4103431F419
:105060002091870592E09227909387058823C9F0C5
:1050700081E08093820580918105811112C0CE016B
:1050800001962EE2DC011D922A95E9F72091090391
:105090002CA7209107033091080338A72FA30E9463
:1050A000423580914A07807E39F490914F0781E024
:1050B000911103C080E001C081E080FF07C09091A2
:1050C0004A07907981E009F4B9C7B7C780914B07C7
:1050D000833009F4ABC70E94B01B882309F4A6C72C
:1050E00080913A068111A2C781E080933A06259605
:1050F0001CAE1DAE1EAE1FAE259780910906909185
:105100000A068F5F853009F480E0981709F443C7D9
:1051100080914A07807E09F087C78091C2029091F2
:10512000C302892B09F0E2C080918105882309F42C
:1051300032C7C0908005BAE2BC9DC0011124FC01B9
:10514000E65FFC4F7F01F093C302E093C202D09070
:10515000C102FFE1FD9D800111240A5D1D4FD801B0
:10516000EFE11D92EA95E9F7D7019C918091E30662
:105170008927F80182831D964D905D906D907C90FB
:105180005097D301C201880F991FAA1FBB1F8787A1
:10519000908BA18BB28BC301B2010E94BF3F9B01D8
:1051A000AC0160E070E080E89FE30E942B3F69AFB4
:1051B0007AAF8BAF9CAFD7015196FC90B4E0FB9EC9
:1051C000F0011124E552F94F21A932A943A954A9AC
:1051D00060E070E080E792E40E942B3F6BAB7CAB19
:1051E0008DAB9EABF8011182F082FAE2CF9EC00136
:1051F00011249C01255F3C4F21963FAF2EAF219794
:105200003FE1D39EC0011124AC01475D5D4F58AB17
:105210004FA7212C312CC12CD12C76010F5F1F4FB1
:105220002196AEADBFAD21978D909D90AD90BD9074
:105230002196BFAFAEAF2197C501B4010E94BF3F19
:105240009B01AC010E945D419B01AC01C701B6010D
:105250000E945E3E6B017C01EFA5F8A9408A518A4D
:10526000628A738AD501C401880F991FAA1FBB1FC8
:1052700081939193A193B193F8ABEFA789288A28E2
:105280008B2859F4D8012C9181E090E0022C01C0C8
:10529000880F0A94EAF7822B8C93BFEF2B1A3B0AF4
:1052A000E3E02E16310409F0BBCF29AD3AAD4BAD8A
:1052B0005CADCA01B9010E945D41A70196010E943F
:1052C0005D410E94E4419B01AC016BA97CA98DA9C1
:1052D0009EA90E945D4160933606709337068093C5
:1052E000380690933906F1E0F09382052091C202CE
:1052F0003091C30221963FAF2EAF2197D9011D9661
:105300008D919D910D90BC91A02D8FA798ABA9ABCD
:10531000BAAB8091090620E1829FF0011124FAAF17
:10532000E9AFE754FA4FDF0120E11D922A95E9F732
:105330003091C1022E963FAF2E974FE1439FC0019F
:1053400011248A5D9D4F9183808380914A07219625
:10535000AEADBFAD219752962D913D914D915C918F
:10536000559729962CAF3DAF4EAF5FAF299782FF7F
:105370001EC02FA538A949A95AA9209332063093F7
:105380003306409334065093350620932E0630930F
:105390002F0640933006509331064FEF5FEF509346
:1053A0002D0640932C0651E0509382053DC280911A
:1053B0008205882309F438C2109282058091810504
:1053C000823008F45AC0809180058F5F8F3009F4D5
:1053D00080E0AAE2A89FC0011124FC01E65FFC4F17
:1053E000E288F38804891589A68CB78CC0A0D1A067
:1053F000FC01ED5CFC4F808183FF32C0609184052D
:105400006436A9F070E080E090E00E94BF3F9B010D
:10541000AC010E945D419701A8010E945D4127E116
:1054200037EB41ED58E30E945D417B018C016091B7
:1054300085056436A9F070E080E090E00E94BF3FEF
:105440009B01AC010E945D419501A6010E945D4156
:1054500027E137EB41ED58E30E945D415B016C01B0
:105460009501A601B701C8010E94243F181654F403
:10547000ABAABFAACDAEDEAE09C01BAA1FAA1DAE45
:105480001EAE04C0EBAAFFAA0DAF1EAF6090800550
:10549000712CBAE2B69DC001B79D900D1124FC019C
:1054A000E65FFC4F6F01E288F38814890589658502
:1054B0007685878590890E94BF3FD60192962D916F
:1054C0003D914D915C9195970E945D419B01AC018E
:1054D0000E945E3E4B015C019701412F502F6BA94A
:1054E0007FA98DAD9EAD0E945D3EA50194010E94F5
:1054F000243F2BA93FA94DAD5EADB70118168CF026
:10550000812F902F0E945E3E9B01AC01C501B4012A
:105510000E945E3E20E030E040E05FE30E945D419B
:105520000DC0812F902F0E94243F87FF0AC0A50144
:105530009401B701812F902F0E945E3E7B01182FAE
:10554000092FBAE2B69DC001B79D900D1124FC0150
:10555000E65FFC4F868C978CA0A0B1A0328C238C88
:10556000C48CD58CFC01ED5CFC4F808183FF34C082
:10557000609184056436B9F070E080E090E00E94AC
:10558000BF3F9B01AC010E945D41232D322DA6013E
:105590000E945D4127E137EB41ED58E30E945D41F8
:1055A000362E272E6C01609185056436A9F070E0D7
:1055B00080E090E00E94BF3F9B01AC010E945D41F2
:1055C0009401A5010E945D4127E137EB41ED58E3CD
:1055D0000E945D414B015C01232D322DA601B401D7
:1055E000C5010E94224187FF03C0382C292C650188
:1055F000232D322DA601B701812F902F0E94243F29
:1056000018161CF41C2D0D2D02C03E2C2F2C21969B
:10561000EEADFFAD219722A133A144A155A160E0D9
:1056200070E080E89FE30E942B3F6B017C01632DBB
:10563000722D812F902F0E94E4412B013C01609339
:1056400028067093290680932A0690932B066BA94F
:105650007FA98DAD9EAD0E94E4412D966CAF7DAFCC
:105660008EAF9FAF2D97609324067093250680938D
:105670002606909327062FA538A949A95AA9209351
:105680003206309333064093340650933506109219
:105690002E0610922F061092300610923106232DFE
:1056A000322D412F502F29966CAD7DAD8EAD9FAD23
:1056B00029970E94243F882309F46CC029962CADB9
:1056C0003DAD4EAD5FAD2997632D722D812F902F8B
:1056D0000E945D3E4B015C0120E030E0A9010E9488
:1056E000224187FF04C0B7FAB094B7F8B094A5017F
:1056F0009401C701B6010E945D4120E030E040E026
:105700005FE30E945D410E9425424B015C016FA551
:1057100078A989A99AA90E94BF3FA50194010E9476
:105720005D3E0E94933F60933206709333068093F0
:1057300034069093350629966CAD7DAD8EAD9FAD48
:1057400029970E94E4419B01AC01C301B2010E9470
:105750005D3E4B015C0120E030E0A9010E94224146
:1057600087FF04C0B7FAB094B7F8B094A5019401CC
:10577000C701B6010E945D4120E030E048EC52E4F0
:105780000E945D410E9425420E94933F7093230630
:10579000609322062BA93FA94DAD5EAD632D722DFE
:1057A000812F902F0E9422411816F4F52BA93FA9B2
:1057B0004DAD5EAD632D722D812F902F0E945D3E09
:1057C000A70196010E945D4120E030E040E05FE3E8
:1057D0000E945D410E94FC3F0E94933F60932E0611
:1057E00070932F0680933006909331062D962CAD42
:1057F0003DAD4EAD5FAD2D97C301B2010E945D3E40
:105800009B01AC01C701B6010E945D4120E030E080
:1058100048EC52E40E945D410E9425420E94933F61
:1058200070932D0660932C0629966CAD7DAD8EADE0
:105830009FAD29970E94E441562E472E382E292EDF
:10584000E9ADFAADE754FA4F31E03787809132067F
:1058500090913306A0913406B09135068BAB9CAB8A
:10586000ADABBEAB609022067090230690912806E7
:105870009DAFA0912906AEAFB0912A062696BFAF84
:10588000269720912B062A962FAF2A978FA598A9A5
:10589000A9A9BAA92BA93CA94DA95EA9821B930B62
:1058A000A40BB50B66968CAF9DAFAEAFBFAF66973E
:1058B00080912E0690912F06A0913006B09131066E
:1058C00062968CAF9DAFAEAFBFAF6297C0902C0613
:1058D000D0902D069091240669969FAF6997A0916C
:1058E00025066A96AFAF6A97B09126066B96BFAF52
:1058F0006B97209127066C962FAF6C97E52CF42CB4
:10590000032D122DAF01415F5F4F68965FAF4EAF21
:1059100068978FA598A9A9A9BAA92BA93CA94DA9AF
:105920005EA9281739074A075B0708F07BC032E0F9
:105930006316710408F45BC09701A8016DAD7EADDC
:1059400026968FAD26972A969FAD2A970E942241D0
:1059500018167CF42AE037ED43E25CE32196AEAD05
:10596000BFAD219792966D917D918D919C91959768
:105970000CC02AE037ED43E25CEB2196EEADFFADC3
:10598000219762A173A184A195A10E945D419B0111
:10599000AC01B701C8010E945E3E7B018C019B01F6
:1059A000AC01652D742D832D922D0E945E3E20E06A
:1059B00030E040E05FE30E945D412AE037ED43E2E2
:1059C0005CE30E945D419B01AC0125966CAD7DAD11
:1059D0008EAD9FAD25970E945E3E25966CAF7DAF44
:1059E0008EAF9FAF2597F1E06F1A710816C06696CB
:1059F0006CAD7DAD8EAD9FAD66970E94BF3F259685
:105A00006CAF7DAF8EAF9FAF2597EDACFEAC269609
:105A10000FAD26972A961FAD2A976BA97CA98DA951
:105A20009EA941C02FA538A949A95AA962968CAD53
:105A30009DADAEADBFAD629782179307A407B507C2
:105A4000B8F58BA99CA9ADA9BEA9281739074A07A3
:105A50005B0729F06896AEADBFAD68971C922DEC40
:105A60003CEC4CE45EE36DAD7EAD26968FAD2697A3
:105A70002A969FAD2A970E945D419B01AC01259615
:105A80006CAD7DAD8EAD9FAD25970E945E3E259697
:105A90006CAF7DAF8EAF9FAF259762966CAD7DAD3D
:105AA0008EAD9FAD62970E94BF3F4B015C0181C0EC
:105AB000B2E0CB16D10408F461C02AE037ED43E22E
:105AC0005CE32196EEADFFAD219762A173A184A1A5
:105AD00095A10E945D419B01AC01B701C8010E94E4
